:0C000000010A6400AE0B940BCB0B810BCB
:10030200FF0C2A0008022B00010CAA008A024306F5
:10031200000808022B00010CAB004306850B040009
:10032200DD0C02008C0B2C00010CAC008C0243068D
:1003320000080400DD0C02000602040D2600200C59
:100342002800000C290005090602FB0E2600400CBD
:100352002800000C29000509950B0400DD0C0200A1
:10036200080C0600F70C27000400DD0C020004094B
:100372000C022F000F024306C00B0A0C03090400F3
:10038200DD0C0200080C06000400DD0C0200660011
:100392000300000A6E006D00AD020400DD0C0200D5
:1003A200090C06000602FC0E2600020C26000400C0
:1003B200DD0C02006E000606E30B010C3F001F027B
:1003C200EE01DC0B0400DD0C0200020C8E000307C0
:1003D2006D00080C06000602FC0E2600640C2800C4
:1003E200000C290005090400DD0C0200090C0600BE
:0C03F2000400DD0C02000D022C000008CD
:021FFE00EFFFF3
:00000001FF
